{
  "_format": "hh-sol-artifact-1",
  "contractName": "CreateBurger",
  "sourceName": "contracts/CreateBurger.sol",
  "abi": [
    {
      "inputs": [],
      "stateMutability": "nonpayable",
      "type": "constructor"
    },
    {
      "anonymous": false,
      "inputs": [
        {
          "indexed": true,
          "internalType": "uint256",
          "name": "burgersId",
          "type": "uint256"
        },
        {
          "indexed": false,
          "internalType": "uint256",
          "name": "price",
          "type": "uint256"
        },
        {
          "indexed": false,
          "internalType": "string",
          "name": "imageLink",
          "type": "string"
        },
        {
          "indexed": false,
          "internalType": "string",
          "name": "ingredients",
          "type": "string"
        },
        {
          "indexed": false,
          "internalType": "uint256",
          "name": "availableBurgers",
          "type": "uint256"
        }
      ],
      "name": "BurgerCreated",
      "type": "event"
    },
    {
      "anonymous": false,
      "inputs": [
        {
          "indexed": true,
          "internalType": "uint256",
          "name": "ordersId",
          "type": "uint256"
        },
        {
          "indexed": false,
          "internalType": "uint256",
          "name": "burgersId",
          "type": "uint256"
        },
        {
          "indexed": false,
          "internalType": "uint256",
          "name": "quantity",
          "type": "uint256"
        },
        {
          "indexed": false,
          "internalType": "bool",
          "name": "completed",
          "type": "bool"
        }
      ],
      "name": "OrderCreated",
      "type": "event"
    },
    {
      "inputs": [
        {
          "internalType": "uint256",
          "name": "_burgersId",
          "type": "uint256"
        }
      ],
      "name": "burgerImageLink",
      "outputs": [
        {
          "internalType": "string",
          "name": "",
          "type": "string"
        }
      ],
      "stateMutability": "view",
      "type": "function"
    },
    {
      "inputs": [
        {
          "internalType": "uint256",
          "name": "_burgerId",
          "type": "uint256"
        },
        {
          "internalType": "uint256",
          "name": "_quantity",
          "type": "uint256"
        }
      ],
      "name": "buyBurger",
      "outputs": [],
      "stateMutability": "payable",
      "type": "function"
    },
    {
      "inputs": [
        {
          "internalType": "uint256",
          "name": "_orderID",
          "type": "uint256"
        }
      ],
      "name": "completeOrder",
      "outputs": [],
      "stateMutability": "nonpayable",
      "type": "function"
    },
    {
      "inputs": [
        {
          "internalType": "uint256",
          "name": "_price",
          "type": "uint256"
        },
        {
          "internalType": "string",
          "name": "_imageLink",
          "type": "string"
        },
        {
          "internalType": "string",
          "name": "_ingredients",
          "type": "string"
        },
        {
          "internalType": "uint256",
          "name": "_availableBurgers",
          "type": "uint256"
        }
      ],
      "name": "createBurger",
      "outputs": [],
      "stateMutability": "payable",
      "type": "function"
    },
    {
      "inputs": [
        {
          "internalType": "uint256",
          "name": "_burgerId",
          "type": "uint256"
        },
        {
          "internalType": "uint256",
          "name": "_quantity",
          "type": "uint256"
        }
      ],
      "name": "createOrder",
      "outputs": [],
      "stateMutability": "payable",
      "type": "function"
    },
    {
      "inputs": [],
      "name": "fetchBurgersCreated",
      "outputs": [
        {
          "components": [
            {
              "internalType": "uint256",
              "name": "burgersId",
              "type": "uint256"
            },
            {
              "internalType": "uint256",
              "name": "price",
              "type": "uint256"
            },
            {
              "internalType": "string",
              "name": "imageLink",
              "type": "string"
            },
            {
              "internalType": "string",
              "name": "ingredients",
              "type": "string"
            },
            {
              "internalType": "uint256",
              "name": "availableBurgers",
              "type": "uint256"
            }
          ],
          "internalType": "struct CreateBurger.Burger[]",
          "name": "",
          "type": "tuple[]"
        }
      ],
      "stateMutability": "view",
      "type": "function"
    },
    {
      "inputs": [],
      "name": "fetchOrdersCreated",
      "outputs": [
        {
          "components": [
            {
              "internalType": "uint256",
              "name": "orderId",
              "type": "uint256"
            },
            {
              "internalType": "uint256",
              "name": "burgersId",
              "type": "uint256"
            },
            {
              "internalType": "uint256",
              "name": "quantity",
              "type": "uint256"
            },
            {
              "internalType": "bool",
              "name": "completed",
              "type": "bool"
            }
          ],
          "internalType": "struct CreateBurger.Order[]",
          "name": "",
          "type": "tuple[]"
        }
      ],
      "stateMutability": "view",
      "type": "function"
    },
    {
      "inputs": [
        {
          "internalType": "uint256",
          "name": "_burgerId",
          "type": "uint256"
        }
      ],
      "name": "getAvailableBurgers",
      "outputs": [
        {
          "internalType": "uint256",
          "name": "",
          "type": "uint256"
        }
      ],
      "stateMutability": "view",
      "type": "function"
    },
    {
      "inputs": [
        {
          "internalType": "uint256",
          "name": "_burgerId",
          "type": "uint256"
        }
      ],
      "name": "getBurgerPrice",
      "outputs": [
        {
          "internalType": "uint256",
          "name": "",
          "type": "uint256"
        }
      ],
      "stateMutability": "view",
      "type": "function"
    },
    {
      "inputs": [
        {
          "internalType": "uint256",
          "name": "",
          "type": "uint256"
        }
      ],
      "name": "idToBurger",
      "outputs": [
        {
          "internalType": "uint256",
          "name": "burgersId",
          "type": "uint256"
        },
        {
          "internalType": "uint256",
          "name": "price",
          "type": "uint256"
        },
        {
          "internalType": "string",
          "name": "imageLink",
          "type": "string"
        },
        {
          "internalType": "string",
          "name": "ingredients",
          "type": "string"
        },
        {
          "internalType": "uint256",
          "name": "availableBurgers",
          "type": "uint256"
        }
      ],
      "stateMutability": "view",
      "type": "function"
    },
    {
      "inputs": [
        {
          "internalType": "uint256",
          "name": "",
          "type": "uint256"
        }
      ],
      "name": "idToOrder",
      "outputs": [
        {
          "internalType": "uint256",
          "name": "orderId",
          "type": "uint256"
        },
        {
          "internalType": "uint256",
          "name": "burgersId",
          "type": "uint256"
        },
        {
          "internalType": "uint256",
          "name": "quantity",
          "type": "uint256"
        },
        {
          "internalType": "bool",
          "name": "completed",
          "type": "bool"
        }
      ],
      "stateMutability": "view",
      "type": "function"
    },
    {
      "inputs": [],
      "name": "owner",
      "outputs": [
        {
          "internalType": "address payable",
          "name": "",
          "type": "address"
        }
      ],
      "stateMutability": "view",
      "type": "function"
    },
    {
      "inputs": [
        {
          "internalType": "uint256",
          "name": "_burgerId",
          "type": "uint256"
        },
        {
          "internalType": "uint256",
          "name": "_number",
          "type": "uint256"
        }
      ],
      "name": "setAvailableBurgers",
      "outputs": [],
      "stateMutability": "nonpayable",
      "type": "function"
    }
  ],
  "bytecode": "0x60806040523480156200001157600080fd5b506200005d6040518060400160405280601f81526020017f4372656174696e67206e65772061706172746d656e7420666163746f72793a00815250620000a460201b62000e2a1760201c565b33600260006101000a81548173ffffffffffffffffffffffffffffffffffffffff021916908373ffffffffffffffffffffffffffffffffffffffff16021790555062000238565b6200014481604051602401620000bb9190620001b1565b6040516020818303038152906040527f41304fac000000000000000000000000000000000000000000000000000000007bffffffffffffffffffffffffffffffffffffffffffffffffffffffff19166020820180517bffffffffffffffffffffffffffffffffffffffffffffffffffffffff83818316178352505050506200014760201b60201c565b50565b60008151905060006a636f6e736f6c652e6c6f679050602083016000808483855afa5050505050565b60006200017d82620001d5565b620001898185620001e0565b93506200019b818560208601620001f1565b620001a68162000227565b840191505092915050565b60006020820190508181036000830152620001cd818462000170565b905092915050565b600081519050919050565b600082825260208201905092915050565b60005b8381101562000211578082015181840152602081019050620001f4565b8381111562000221576000848401525b50505050565b6000601f19601f8301169050919050565b611abf80620002486000396000f3fe6080604052600436106100c25760003560e01c80638d4861291161007f578063b6adaaff11610059578063b6adaaff14610267578063b9b3e7f214610290578063c6b56391146102ac578063dff5913d146102e9576100c2565b80638d486129146101bf5780638da5cb5b146101fc5780638f1ec88f14610227576100c2565b80632381871a146100c757806368ad2804146100e35780636e64ec391461010e57806379109baa146101395780637bab3f5b146101555780637d9d1c3e14610196575b600080fd5b6100e160048036038101906100dc91906110b2565b610326565b005b3480156100ef57600080fd5b506100f861045b565b60405161010591906114b5565b60405180910390f35b34801561011a57600080fd5b5061012361067d565b6040516101309190611493565b60405180910390f35b610153600480360381019061014e9190611145565b6108ff565b005b34801561016157600080fd5b5061017c60048036038101906101779190611089565b6109d1565b60405161018d9594939291906115fe565b60405180910390f35b3480156101a257600080fd5b506101bd60048036038101906101b89190611145565b610b17565b005b3480156101cb57600080fd5b506101e660048036038101906101e19190611089565b610b36565b6040516101f39190611559565b60405180910390f35b34801561020857600080fd5b50610211610b5b565b60405161021e9190611478565b60405180910390f35b34801561023357600080fd5b5061024e60048036038101906102499190611089565b610b81565b60405161025e949392919061165f565b60405180910390f35b34801561027357600080fd5b5061028e60048036038101906102899190611089565b610bbe565b005b6102aa60048036038101906102a59190611145565b610c5a565b005b3480156102b857600080fd5b506102d360048036038101906102ce9190611089565b610d57565b6040516102e091906114d7565b60405180910390f35b3480156102f557600080fd5b50610310600480360381019061030b9190611089565b610e05565b60405161031d9190611559565b60405180910390f35b60008411610369576040517f08c379a000000000000000000000000000000000000000000000000000000000815260040161036090611519565b60405180910390fd5b6103736000610ec3565b600061037f6000610ed9565b90506040518060a001604052808281526020018681526020018581526020018481526020018381525060036000838152602001908152602001600020600082015181600001556020820151816001015560408201518160020190805190602001906103eb929190610f10565b506060820151816003019080519060200190610408929190610f10565b5060808201518160040155905050807f23119deed7b47be6d489b1f7d0363a95910d87532d447414fd801d692ae3a90f8686868660405161044c9493929190611574565b60405180910390a25050505050565b606060006104696001610ed9565b90506000805b828110156104d557600015156004600060018461048c9190611799565b815260200190815260200160002060030160009054906101000a900460ff16151514156104c25781806104be90611910565b9250505b80806104cd90611910565b91505061046f565b5060008167ffffffffffffffff811115610518577f4e487b7100000000000000000000000000000000000000000000000000000000600052604160045260246000fd5b60405190808252806020026020018201604052801561055157816020015b61053e610f96565b8152602001906001900390816105365790505b5090506000805b848110156106725760001515600460006001846105759190611799565b815260200190815260200160002060030160009054906101000a900460ff161515141561065f5760006001826105ab9190611799565b90506000600460008381526020019081526020016000209050806040518060800160405290816000820154815260200160018201548152602001600282015481526020016003820160009054906101000a900460ff161515151581525050858581518110610642577f4e487b7100000000000000000000000000000000000000000000000000000000600052603260045260246000fd5b602002602001018190525060018461065a9190611799565b935050505b808061066a90611910565b915050610558565b508194505050505090565b6060600061068b6000610ed9565b905060008167ffffffffffffffff8111156106cf577f4e487b7100000000000000000000000000000000000000000000000000000000600052604160045260246000fd5b60405190808252806020026020018201604052801561070857816020015b6106f5610fc0565b8152602001906001900390816106ed5790505b5090506000805b838110156108f55760006001826107269190611799565b90506000600360008381526020019081526020016000209050806040518060a0016040529081600082015481526020016001820154815260200160028201805461076f906118ad565b80601f016020809104026020016040519081016040528092919081815260200182805461079b906118ad565b80156107e85780601f106107bd576101008083540402835291602001916107e8565b820191906000526020600020905b8154815290600101906020018083116107cb57829003601f168201915b50505050508152602001600382018054610801906118ad565b80601f016020809104026020016040519081016040528092919081815260200182805461082d906118ad565b801561087a5780601f1061084f5761010080835404028352916020019161087a565b820191906000526020600020905b81548152906001019060200180831161085d57829003601f168201915b505050505081526020016004820154815250508585815181106108c6577f4e487b7100000000000000000000000000000000000000000000000000000000600052603260045260246000fd5b60200260200101819052506001846108de9190611799565b9350505080806108ed90611910565b91505061070f565b5081935050505090565b6109096001610ec3565b60006109156001610ed9565b90506040518060800160405280828152602001848152602001838152602001600015158152506004600083815260200190815260200160002060008201518160000155602082015181600101556040820151816002015560608201518160030160006101000a81548160ff021916908315150217905550905050807f11fd0e74c147066480bd6166b8e21221300bd96117f6ed7620117b573e497f9d848460006040516109c4939291906115c7565b60405180910390a2505050565b6003602052806000526040600020600091509050806000015490806001015490806002018054610a00906118ad565b80601f0160208091040260200160405190810160405280929190818152602001828054610a2c906118ad565b8015610a795780601f10610a4e57610100808354040283529160200191610a79565b820191906000526020600020905b815481529060010190602001808311610a5c57829003601f168201915b505050505090806003018054610a8e906118ad565b80601f0160208091040260200160405190810160405280929190818152602001828054610aba906118ad565b8015610b075780601f10610adc57610100808354040283529160200191610b07565b820191906000526020600020905b815481529060010190602001808311610aea57829003601f168201915b5050505050908060040154905085565b8060036000848152602001908152602001600020600401819055505050565b6000806003600084815260200190815260200160002060040154905080915050919050565b600260009054906101000a900473ffffffffffffffffffffffffffffffffffffffff1681565b60046020528060005260406000206000915090508060000154908060010154908060020154908060030160009054906101000a900460ff16905084565b600015156004600083815260200190815260200160002060030160009054906101000a900460ff16151514610c28576040517f08c379a0000000000000000000000000000000000000000000000000000000008152600401610c1f90611539565b60405180910390fd5b60016004600083815260200190815260200160002060030160006101000a81548160ff02191690831515021790555050565b6003600083815260200190815260200160002060040154811115610cb3576040517f08c379a0000000000000000000000000000000000000000000000000000000008152600401610caa906114f9565b60405180910390fd5b600260009054906101000a900473ffffffffffffffffffffffffffffffffffffffff1673ffffffffffffffffffffffffffffffffffffffff166108fc349081150290604051600060405180830381858888f19350505050158015610d1b573d6000803e3d6000fd5b5080600360008481526020019081526020016000206004016000828254610d4291906117ef565b92505081905550610d5382826108ff565b5050565b60606000600360008481526020019081526020016000206002018054610d7c906118ad565b80601f0160208091040260200160405190810160405280929190818152602001828054610da8906118ad565b8015610df55780601f10610dca57610100808354040283529160200191610df5565b820191906000526020600020905b815481529060010190602001808311610dd857829003601f168201915b5050505050905080915050919050565b6000806003600084815260200190815260200160002060010154905080915050919050565b610ec081604051602401610e3e91906114d7565b6040516020818303038152906040527f41304fac000000000000000000000000000000000000000000000000000000007bffffffffffffffffffffffffffffffffffffffffffffffffffffffff19166020820180517bffffffffffffffffffffffffffffffffffffffffffffffffffffffff8381831617835250505050610ee7565b50565b6001816000016000828254019250508190555050565b600081600001549050919050565b60008151905060006a636f6e736f6c652e6c6f679050602083016000808483855afa5050505050565b828054610f1c906118ad565b90600052602060002090601f016020900481019282610f3e5760008555610f85565b82601f10610f5757805160ff1916838001178555610f85565b82800160010185558215610f85579182015b82811115610f84578251825591602001919060010190610f69565b5b509050610f929190610fef565b5090565b60405180608001604052806000815260200160008152602001600081526020016000151581525090565b6040518060a0016040528060008152602001600081526020016060815260200160608152602001600081525090565b5b80821115611008576000816000905550600101610ff0565b5090565b600061101f61101a846116c9565b6116a4565b90508281526020810184848401111561103757600080fd5b61104284828561186b565b509392505050565b600082601f83011261105b57600080fd5b813561106b84826020860161100c565b91505092915050565b60008135905061108381611a72565b92915050565b60006020828403121561109b57600080fd5b60006110a984828501611074565b91505092915050565b600080600080608085870312156110c857600080fd5b60006110d687828801611074565b945050602085013567ffffffffffffffff8111156110f357600080fd5b6110ff8782880161104a565b935050604085013567ffffffffffffffff81111561111c57600080fd5b6111288782880161104a565b925050606061113987828801611074565b91505092959194509250565b6000806040838503121561115857600080fd5b600061116685828601611074565b925050602061117785828601611074565b9150509250929050565b600061118d8383611388565b905092915050565b60006111a18383611405565b60808301905092915050565b6111b681611823565b82525050565b60006111c78261171a565b6111d18185611755565b9350836020820285016111e3856116fa565b8060005b8581101561121f57848403895281516112008582611181565b945061120b8361173b565b925060208a019950506001810190506111e7565b50829750879550505050505092915050565b600061123c82611725565b6112468185611766565b93506112518361170a565b8060005b838110156112825781516112698882611195565b975061127483611748565b925050600181019050611255565b5085935050505092915050565b61129881611835565b82525050565b6112a781611835565b82525050565b60006112b882611730565b6112c28185611777565b93506112d281856020860161187a565b6112db816119e6565b840191505092915050565b60006112f182611730565b6112fb8185611788565b935061130b81856020860161187a565b611314816119e6565b840191505092915050565b600061132c601283611788565b9150611337826119f7565b602082019050919050565b600061134f601c83611788565b915061135a82611a20565b602082019050919050565b6000611372601183611788565b915061137d82611a49565b602082019050919050565b600060a0830160008301516113a0600086018261145a565b5060208301516113b3602086018261145a565b50604083015184820360408601526113cb82826112ad565b915050606083015184820360608601526113e582826112ad565b91505060808301516113fa608086018261145a565b508091505092915050565b60808201600082015161141b600085018261145a565b50602082015161142e602085018261145a565b506040820151611441604085018261145a565b506060820151611454606085018261128f565b50505050565b61146381611861565b82525050565b61147281611861565b82525050565b600060208201905061148d60008301846111ad565b92915050565b600060208201905081810360008301526114ad81846111bc565b905092915050565b600060208201905081810360008301526114cf8184611231565b905092915050565b600060208201905081810360008301526114f181846112e6565b905092915050565b600060208201905081810360008301526115128161131f565b9050919050565b6000602082019050818103600083015261153281611342565b9050919050565b6000602082019050818103600083015261155281611365565b9050919050565b600060208201905061156e6000830184611469565b92915050565b60006080820190506115896000830187611469565b818103602083015261159b81866112e6565b905081810360408301526115af81856112e6565b90506115be6060830184611469565b95945050505050565b60006060820190506115dc6000830186611469565b6115e96020830185611469565b6115f6604083018461129e565b949350505050565b600060a0820190506116136000830188611469565b6116206020830187611469565b818103604083015261163281866112e6565b9050818103606083015261164681856112e6565b90506116556080830184611469565b9695505050505050565b60006080820190506116746000830187611469565b6116816020830186611469565b61168e6040830185611469565b61169b606083018461129e565b95945050505050565b60006116ae6116bf565b90506116ba82826118df565b919050565b6000604051905090565b600067ffffffffffffffff8211156116e4576116e36119b7565b5b6116ed826119e6565b9050602081019050919050565b6000819050602082019050919050565b6000819050602082019050919050565b600081519050919050565b600081519050919050565b600081519050919050565b6000602082019050919050565b6000602082019050919050565b600082825260208201905092915050565b600082825260208201905092915050565b600082825260208201905092915050565b600082825260208201905092915050565b60006117a482611861565b91506117af83611861565b9250827fffffffffffffffffffffffffffffffffffffffffffffffffffffffffffffffff038211156117e4576117e3611959565b5b828201905092915050565b60006117fa82611861565b915061180583611861565b92508282101561181857611817611959565b5b828203905092915050565b600061182e82611841565b9050919050565b60008115159050919050565b600073ffffffffffffffffffffffffffffffffffffffff82169050919050565b6000819050919050565b82818337600083830152505050565b60005b8381101561189857808201518184015260208101905061187d565b838111156118a7576000848401525b50505050565b600060028204905060018216806118c557607f821691505b602082108114156118d9576118d8611988565b5b50919050565b6118e8826119e6565b810181811067ffffffffffffffff82111715611907576119066119b7565b5b80604052505050565b600061191b82611861565b91507fffffffffffffffffffffffffffffffffffffffffffffffffffffffffffffffff82141561194e5761194d611959565b5b600182019050919050565b7f4e487b7100000000000000000000000000000000000000000000000000000000600052601160045260246000fd5b7f4e487b7100000000000000000000000000000000000000000000000000000000600052602260045260246000fd5b7f4e487b7100000000000000000000000000000000000000000000000000000000600052604160045260246000fd5b6000601f19601f8301169050919050565b7f4e6f7420656e6f75676820627572676572730000000000000000000000000000600082015250565b7f5072696365206d757374206265206174206c6561737420312077656900000000600082015250565b7f416c726561647920636f6d706c65746564000000000000000000000000000000600082015250565b611a7b81611861565b8114611a8657600080fd5b5056fea26469706673582212204c13831f4f6d72de4f39696de249c185b473f794cc926b0de412961f3b3c636864736f6c63430008040033",
  "linkReferences": {},
  "deployedLinkReferences": {}
}