{
  "_format": "hh-sol-artifact-1",
  "contractName": "CreateBurger",
  "sourceName": "contracts/CreateBurger.sol",
  "abi": [
    {
      "inputs": [],
      "stateMutability": "nonpayable",
      "type": "constructor"
    },
    {
      "anonymous": false,
      "inputs": [
        {
          "indexed": true,
          "internalType": "uint256",
          "name": "burgersId",
          "type": "uint256"
        },
        {
          "indexed": false,
          "internalType": "uint256",
          "name": "price",
          "type": "uint256"
        },
        {
          "indexed": false,
          "internalType": "string",
          "name": "imageLink",
          "type": "string"
        },
        {
          "indexed": false,
          "internalType": "string",
          "name": "ingredients",
          "type": "string"
        },
        {
          "indexed": false,
          "internalType": "uint256",
          "name": "availableBurgers",
          "type": "uint256"
        }
      ],
      "name": "BurgerCreated",
      "type": "event"
    },
    {
      "anonymous": false,
      "inputs": [
        {
          "indexed": true,
          "internalType": "uint256",
          "name": "ordersId",
          "type": "uint256"
        },
        {
          "indexed": false,
          "internalType": "uint256",
          "name": "burgersId",
          "type": "uint256"
        },
        {
          "indexed": false,
          "internalType": "uint256",
          "name": "quantity",
          "type": "uint256"
        },
        {
          "indexed": false,
          "internalType": "bool",
          "name": "completed",
          "type": "bool"
        }
      ],
      "name": "OrderCreated",
      "type": "event"
    },
    {
      "inputs": [
        {
          "internalType": "uint256",
          "name": "_burgersId",
          "type": "uint256"
        }
      ],
      "name": "burgerImageLink",
      "outputs": [
        {
          "internalType": "string",
          "name": "",
          "type": "string"
        }
      ],
      "stateMutability": "view",
      "type": "function"
    },
    {
      "inputs": [
        {
          "internalType": "uint256",
          "name": "_burgerId",
          "type": "uint256"
        },
        {
          "internalType": "uint256",
          "name": "_quantity",
          "type": "uint256"
        }
      ],
      "name": "buyBurger",
      "outputs": [],
      "stateMutability": "payable",
      "type": "function"
    },
    {
      "inputs": [
        {
          "internalType": "uint256",
          "name": "_orderID",
          "type": "uint256"
        }
      ],
      "name": "completeOrder",
      "outputs": [],
      "stateMutability": "nonpayable",
      "type": "function"
    },
    {
      "inputs": [
        {
          "internalType": "uint256",
          "name": "_price",
          "type": "uint256"
        },
        {
          "internalType": "string",
          "name": "_imageLink",
          "type": "string"
        },
        {
          "internalType": "string",
          "name": "_ingredients",
          "type": "string"
        },
        {
          "internalType": "uint256",
          "name": "_availableBurgers",
          "type": "uint256"
        }
      ],
      "name": "createBurger",
      "outputs": [],
      "stateMutability": "payable",
      "type": "function"
    },
    {
      "inputs": [
        {
          "internalType": "uint256",
          "name": "_burgerId",
          "type": "uint256"
        },
        {
          "internalType": "uint256",
          "name": "_quantity",
          "type": "uint256"
        }
      ],
      "name": "createOrder",
      "outputs": [],
      "stateMutability": "payable",
      "type": "function"
    },
    {
      "inputs": [],
      "name": "fetchBurgersCreated",
      "outputs": [
        {
          "components": [
            {
              "internalType": "uint256",
              "name": "burgersId",
              "type": "uint256"
            },
            {
              "internalType": "uint256",
              "name": "price",
              "type": "uint256"
            },
            {
              "internalType": "string",
              "name": "imageLink",
              "type": "string"
            },
            {
              "internalType": "string",
              "name": "ingredients",
              "type": "string"
            },
            {
              "internalType": "uint256",
              "name": "availableBurgers",
              "type": "uint256"
            }
          ],
          "internalType": "struct CreateBurger.Burger[]",
          "name": "",
          "type": "tuple[]"
        }
      ],
      "stateMutability": "view",
      "type": "function"
    },
    {
      "inputs": [],
      "name": "fetchOrdersCreated",
      "outputs": [
        {
          "components": [
            {
              "internalType": "uint256",
              "name": "orderId",
              "type": "uint256"
            },
            {
              "internalType": "uint256",
              "name": "burgersId",
              "type": "uint256"
            },
            {
              "internalType": "uint256",
              "name": "quantity",
              "type": "uint256"
            },
            {
              "internalType": "bool",
              "name": "completed",
              "type": "bool"
            }
          ],
          "internalType": "struct CreateBurger.Order[]",
          "name": "",
          "type": "tuple[]"
        }
      ],
      "stateMutability": "view",
      "type": "function"
    },
    {
      "inputs": [
        {
          "internalType": "uint256",
          "name": "_burgerId",
          "type": "uint256"
        }
      ],
      "name": "getAvailableBurgers",
      "outputs": [
        {
          "internalType": "uint256",
          "name": "",
          "type": "uint256"
        }
      ],
      "stateMutability": "view",
      "type": "function"
    },
    {
      "inputs": [
        {
          "internalType": "uint256",
          "name": "_burgerId",
          "type": "uint256"
        }
      ],
      "name": "getBurgerPrice",
      "outputs": [
        {
          "internalType": "uint256",
          "name": "",
          "type": "uint256"
        }
      ],
      "stateMutability": "view",
      "type": "function"
    },
    {
      "inputs": [
        {
          "internalType": "uint256",
          "name": "",
          "type": "uint256"
        }
      ],
      "name": "idToBurger",
      "outputs": [
        {
          "internalType": "uint256",
          "name": "burgersId",
          "type": "uint256"
        },
        {
          "internalType": "uint256",
          "name": "price",
          "type": "uint256"
        },
        {
          "internalType": "string",
          "name": "imageLink",
          "type": "string"
        },
        {
          "internalType": "string",
          "name": "ingredients",
          "type": "string"
        },
        {
          "internalType": "uint256",
          "name": "availableBurgers",
          "type": "uint256"
        }
      ],
      "stateMutability": "view",
      "type": "function"
    },
    {
      "inputs": [
        {
          "internalType": "uint256",
          "name": "",
          "type": "uint256"
        }
      ],
      "name": "idToOrder",
      "outputs": [
        {
          "internalType": "uint256",
          "name": "orderId",
          "type": "uint256"
        },
        {
          "internalType": "uint256",
          "name": "burgersId",
          "type": "uint256"
        },
        {
          "internalType": "uint256",
          "name": "quantity",
          "type": "uint256"
        },
        {
          "internalType": "bool",
          "name": "completed",
          "type": "bool"
        }
      ],
      "stateMutability": "view",
      "type": "function"
    },
    {
      "inputs": [],
      "name": "owner",
      "outputs": [
        {
          "internalType": "address payable",
          "name": "",
          "type": "address"
        }
      ],
      "stateMutability": "view",
      "type": "function"
    },
    {
      "inputs": [
        {
          "internalType": "uint256",
          "name": "_burgerId",
          "type": "uint256"
        },
        {
          "internalType": "uint256",
          "name": "_number",
          "type": "uint256"
        }
      ],
      "name": "setAvailableBurgers",
      "outputs": [],
      "stateMutability": "nonpayable",
      "type": "function"
    }
  ],
  "bytecode": "0x60806040523480156200001157600080fd5b506200005d6040518060400160405280601f81526020017f4372656174696e67206e65772061706172746d656e7420666163746f72793a00815250620000a460201b62000e8d1760201c565b33600260006101000a81548173ffffffffffffffffffffffffffffffffffffffff021916908373ffffffffffffffffffffffffffffffffffffffff16021790555062000238565b6200014481604051602401620000bb9190620001b1565b6040516020818303038152906040527f41304fac000000000000000000000000000000000000000000000000000000007bffffffffffffffffffffffffffffffffffffffffffffffffffffffff19166020820180517bffffffffffffffffffffffffffffffffffffffffffffffffffffffff83818316178352505050506200014760201b60201c565b50565b60008151905060006a636f6e736f6c652e6c6f679050602083016000808483855afa5050505050565b60006200017d82620001d5565b620001898185620001e0565b93506200019b818560208601620001f1565b620001a68162000227565b840191505092915050565b60006020820190508181036000830152620001cd818462000170565b905092915050565b600081519050919050565b600082825260208201905092915050565b60005b8381101562000211578082015181840152602081019050620001f4565b8381111562000221576000848401525b50505050565b6000601f19601f8301169050919050565b611be880620002486000396000f3fe6080604052600436106100c25760003560e01c80638d4861291161007f578063b6adaaff11610059578063b6adaaff14610267578063b9b3e7f214610290578063c6b56391146102ac578063dff5913d146102e9576100c2565b80638d486129146101bf5780638da5cb5b146101fc5780638f1ec88f14610227576100c2565b80632381871a146100c757806368ad2804146100e35780636e64ec391461010e57806379109baa146101395780637bab3f5b146101555780637d9d1c3e14610196575b600080fd5b6100e160048036038101906100dc9190611115565b610326565b005b3480156100ef57600080fd5b506100f861045b565b604051610105919061153b565b60405180910390f35b34801561011a57600080fd5b5061012361067d565b6040516101309190611519565b60405180910390f35b610153600480360381019061014e91906111a8565b6108ff565b005b34801561016157600080fd5b5061017c600480360381019061017791906110ec565b6109d1565b60405161018d9594939291906116a4565b60405180910390f35b3480156101a257600080fd5b506101bd60048036038101906101b891906111a8565b610b17565b005b3480156101cb57600080fd5b506101e660048036038101906101e191906110ec565b610b36565b6040516101f391906115ff565b60405180910390f35b34801561020857600080fd5b50610211610b5b565b60405161021e91906114fe565b60405180910390f35b34801561023357600080fd5b5061024e600480360381019061024991906110ec565b610b81565b60405161025e9493929190611705565b60405180910390f35b34801561027357600080fd5b5061028e600480360381019061028991906110ec565b610bbe565b005b6102aa60048036038101906102a591906111a8565b610c5a565b005b3480156102b857600080fd5b506102d360048036038101906102ce91906110ec565b610dba565b6040516102e0919061155d565b60405180910390f35b3480156102f557600080fd5b50610310600480360381019061030b91906110ec565b610e68565b60405161031d91906115ff565b60405180910390f35b60008411610369576040517f08c379a0000000000000000000000000000000000000000000000000000000008152600401610360906115bf565b60405180910390fd5b6103736000610f26565b600061037f6000610f3c565b90506040518060a001604052808281526020018681526020018581526020018481526020018381525060036000838152602001908152602001600020600082015181600001556020820151816001015560408201518160020190805190602001906103eb929190610f73565b506060820151816003019080519060200190610408929190610f73565b5060808201518160040155905050807f23119deed7b47be6d489b1f7d0363a95910d87532d447414fd801d692ae3a90f8686868660405161044c949392919061161a565b60405180910390a25050505050565b606060006104696001610f3c565b90506000805b828110156104d557600015156004600060018461048c919061183f565b815260200190815260200160002060030160009054906101000a900460ff16151514156104c25781806104be90611a10565b9250505b80806104cd90611a10565b91505061046f565b5060008167ffffffffffffffff811115610518577f4e487b7100000000000000000000000000000000000000000000000000000000600052604160045260246000fd5b60405190808252806020026020018201604052801561055157816020015b61053e610ff9565b8152602001906001900390816105365790505b5090506000805b84811015610672576000151560046000600184610575919061183f565b815260200190815260200160002060030160009054906101000a900460ff161515141561065f5760006001826105ab919061183f565b90506000600460008381526020019081526020016000209050806040518060800160405290816000820154815260200160018201548152602001600282015481526020016003820160009054906101000a900460ff161515151581525050858581518110610642577f4e487b7100000000000000000000000000000000000000000000000000000000600052603260045260246000fd5b602002602001018190525060018461065a919061183f565b935050505b808061066a90611a10565b915050610558565b508194505050505090565b6060600061068b6000610f3c565b905060008167ffffffffffffffff8111156106cf577f4e487b7100000000000000000000000000000000000000000000000000000000600052604160045260246000fd5b60405190808252806020026020018201604052801561070857816020015b6106f5611023565b8152602001906001900390816106ed5790505b5090506000805b838110156108f5576000600182610726919061183f565b90506000600360008381526020019081526020016000209050806040518060a0016040529081600082015481526020016001820154815260200160028201805461076f906119ad565b80601f016020809104026020016040519081016040528092919081815260200182805461079b906119ad565b80156107e85780601f106107bd576101008083540402835291602001916107e8565b820191906000526020600020905b8154815290600101906020018083116107cb57829003601f168201915b50505050508152602001600382018054610801906119ad565b80601f016020809104026020016040519081016040528092919081815260200182805461082d906119ad565b801561087a5780601f1061084f5761010080835404028352916020019161087a565b820191906000526020600020905b81548152906001019060200180831161085d57829003601f168201915b505050505081526020016004820154815250508585815181106108c6577f4e487b7100000000000000000000000000000000000000000000000000000000600052603260045260246000fd5b60200260200101819052506001846108de919061183f565b9350505080806108ed90611a10565b91505061070f565b5081935050505090565b6109096001610f26565b60006109156001610f3c565b90506040518060800160405280828152602001848152602001838152602001600015158152506004600083815260200190815260200160002060008201518160000155602082015181600101556040820151816002015560608201518160030160006101000a81548160ff021916908315150217905550905050807f11fd0e74c147066480bd6166b8e21221300bd96117f6ed7620117b573e497f9d848460006040516109c49392919061166d565b60405180910390a2505050565b6003602052806000526040600020600091509050806000015490806001015490806002018054610a00906119ad565b80601f0160208091040260200160405190810160405280929190818152602001828054610a2c906119ad565b8015610a795780601f10610a4e57610100808354040283529160200191610a79565b820191906000526020600020905b815481529060010190602001808311610a5c57829003601f168201915b505050505090806003018054610a8e906119ad565b80601f0160208091040260200160405190810160405280929190818152602001828054610aba906119ad565b8015610b075780601f10610adc57610100808354040283529160200191610b07565b820191906000526020600020905b815481529060010190602001808311610aea57829003601f168201915b5050505050908060040154905085565b8060036000848152602001908152602001600020600401819055505050565b6000806003600084815260200190815260200160002060040154905080915050919050565b600260009054906101000a900473ffffffffffffffffffffffffffffffffffffffff1681565b60046020528060005260406000206000915090508060000154908060010154908060020154908060030160009054906101000a900460ff16905084565b600015156004600083815260200190815260200160002060030160009054906101000a900460ff16151514610c28576040517f08c379a0000000000000000000000000000000000000000000000000000000008152600401610c1f906115df565b60405180910390fd5b60016004600083815260200190815260200160002060030160006101000a81548160ff02191690831515021790555050565b600360008381526020019081526020016000206001015481610c7c9190611895565b3414610cbd576040517f08c379a0000000000000000000000000000000000000000000000000000000008152600401610cb49061157f565b60405180910390fd5b6003600083815260200190815260200160002060040154811115610d16576040517f08c379a0000000000000000000000000000000000000000000000000000000008152600401610d0d9061159f565b60405180910390fd5b600260009054906101000a900473ffffffffffffffffffffffffffffffffffffffff1673ffffffffffffffffffffffffffffffffffffffff166108fc349081150290604051600060405180830381858888f19350505050158015610d7e573d6000803e3d6000fd5b5080600360008481526020019081526020016000206004016000828254610da591906118ef565b92505081905550610db682826108ff565b5050565b60606000600360008481526020019081526020016000206002018054610ddf906119ad565b80601f0160208091040260200160405190810160405280929190818152602001828054610e0b906119ad565b8015610e585780601f10610e2d57610100808354040283529160200191610e58565b820191906000526020600020905b815481529060010190602001808311610e3b57829003601f168201915b5050505050905080915050919050565b6000806003600084815260200190815260200160002060010154905080915050919050565b610f2381604051602401610ea1919061155d565b6040516020818303038152906040527f41304fac000000000000000000000000000000000000000000000000000000007bffffffffffffffffffffffffffffffffffffffffffffffffffffffff19166020820180517bffffffffffffffffffffffffffffffffffffffffffffffffffffffff8381831617835250505050610f4a565b50565b6001816000016000828254019250508190555050565b600081600001549050919050565b60008151905060006a636f6e736f6c652e6c6f679050602083016000808483855afa5050505050565b828054610f7f906119ad565b90600052602060002090601f016020900481019282610fa15760008555610fe8565b82601f10610fba57805160ff1916838001178555610fe8565b82800160010185558215610fe8579182015b82811115610fe7578251825591602001919060010190610fcc565b5b509050610ff59190611052565b5090565b60405180608001604052806000815260200160008152602001600081526020016000151581525090565b6040518060a0016040528060008152602001600081526020016060815260200160608152602001600081525090565b5b8082111561106b576000816000905550600101611053565b5090565b600061108261107d8461176f565b61174a565b90508281526020810184848401111561109a57600080fd5b6110a584828561196b565b509392505050565b600082601f8301126110be57600080fd5b81356110ce84826020860161106f565b91505092915050565b6000813590506110e681611b9b565b92915050565b6000602082840312156110fe57600080fd5b600061110c848285016110d7565b91505092915050565b6000806000806080858703121561112b57600080fd5b6000611139878288016110d7565b945050602085013567ffffffffffffffff81111561115657600080fd5b611162878288016110ad565b935050604085013567ffffffffffffffff81111561117f57600080fd5b61118b878288016110ad565b925050606061119c878288016110d7565b91505092959194509250565b600080604083850312156111bb57600080fd5b60006111c9858286016110d7565b92505060206111da858286016110d7565b9150509250929050565b60006111f0838361140e565b905092915050565b6000611204838361148b565b60808301905092915050565b61121981611923565b82525050565b600061122a826117c0565b61123481856117fb565b935083602082028501611246856117a0565b8060005b85811015611282578484038952815161126385826111e4565b945061126e836117e1565b925060208a0199505060018101905061124a565b50829750879550505050505092915050565b600061129f826117cb565b6112a9818561180c565b93506112b4836117b0565b8060005b838110156112e55781516112cc88826111f8565b97506112d7836117ee565b9250506001810190506112b8565b5085935050505092915050565b6112fb81611935565b82525050565b61130a81611935565b82525050565b600061131b826117d6565b611325818561181d565b935061133581856020860161197a565b61133e81611ae6565b840191505092915050565b6000611354826117d6565b61135e818561182e565b935061136e81856020860161197a565b61137781611ae6565b840191505092915050565b600061138f60108361182e565b915061139a82611af7565b602082019050919050565b60006113b260128361182e565b91506113bd82611b20565b602082019050919050565b60006113d5601c8361182e565b91506113e082611b49565b602082019050919050565b60006113f860118361182e565b915061140382611b72565b602082019050919050565b600060a08301600083015161142660008601826114e0565b50602083015161143960208601826114e0565b50604083015184820360408601526114518282611310565b9150506060830151848203606086015261146b8282611310565b915050608083015161148060808601826114e0565b508091505092915050565b6080820160008201516114a160008501826114e0565b5060208201516114b460208501826114e0565b5060408201516114c760408501826114e0565b5060608201516114da60608501826112f2565b50505050565b6114e981611961565b82525050565b6114f881611961565b82525050565b60006020820190506115136000830184611210565b92915050565b60006020820190508181036000830152611533818461121f565b905092915050565b600060208201905081810360008301526115558184611294565b905092915050565b600060208201905081810360008301526115778184611349565b905092915050565b6000602082019050818103600083015261159881611382565b9050919050565b600060208201905081810360008301526115b8816113a5565b9050919050565b600060208201905081810360008301526115d8816113c8565b9050919050565b600060208201905081810360008301526115f8816113eb565b9050919050565b600060208201905061161460008301846114ef565b92915050565b600060808201905061162f60008301876114ef565b81810360208301526116418186611349565b905081810360408301526116558185611349565b905061166460608301846114ef565b95945050505050565b600060608201905061168260008301866114ef565b61168f60208301856114ef565b61169c6040830184611301565b949350505050565b600060a0820190506116b960008301886114ef565b6116c660208301876114ef565b81810360408301526116d88186611349565b905081810360608301526116ec8185611349565b90506116fb60808301846114ef565b9695505050505050565b600060808201905061171a60008301876114ef565b61172760208301866114ef565b61173460408301856114ef565b6117416060830184611301565b95945050505050565b6000611754611765565b905061176082826119df565b919050565b6000604051905090565b600067ffffffffffffffff82111561178a57611789611ab7565b5b61179382611ae6565b9050602081019050919050565b6000819050602082019050919050565b6000819050602082019050919050565b600081519050919050565b600081519050919050565b600081519050919050565b6000602082019050919050565b6000602082019050919050565b600082825260208201905092915050565b600082825260208201905092915050565b600082825260208201905092915050565b600082825260208201905092915050565b600061184a82611961565b915061185583611961565b9250827fffffffffffffffffffffffffffffffffffffffffffffffffffffffffffffffff0382111561188a57611889611a59565b5b828201905092915050565b60006118a082611961565b91506118ab83611961565b9250817fffffffffffffffffffffffffffffffffffffffffffffffffffffffffffffffff04831182151516156118e4576118e3611a59565b5b828202905092915050565b60006118fa82611961565b915061190583611961565b92508282101561191857611917611a59565b5b828203905092915050565b600061192e82611941565b9050919050565b60008115159050919050565b600073ffffffffffffffffffffffffffffffffffffffff82169050919050565b6000819050919050565b82818337600083830152505050565b60005b8381101561199857808201518184015260208101905061197d565b838111156119a7576000848401525b50505050565b600060028204905060018216806119c557607f821691505b602082108114156119d9576119d8611a88565b5b50919050565b6119e882611ae6565b810181811067ffffffffffffffff82111715611a0757611a06611ab7565b5b80604052505050565b6000611a1b82611961565b91507fffffffffffffffffffffffffffffffffffffffffffffffffffffffffffffffff821415611a4e57611a4d611a59565b5b600182019050919050565b7f4e487b7100000000000000000000000000000000000000000000000000000000600052601160045260246000fd5b7f4e487b7100000000000000000000000000000000000000000000000000000000600052602260045260246000fd5b7f4e487b7100000000000000000000000000000000000000000000000000000000600052604160045260246000fd5b6000601f19601f8301169050919050565b7f4e6f7420656e6f756768206d6f6e657900000000000000000000000000000000600082015250565b7f4e6f7420656e6f75676820627572676572730000000000000000000000000000600082015250565b7f5072696365206d757374206265206174206c6561737420312077656900000000600082015250565b7f416c726561647920636f6d706c65746564000000000000000000000000000000600082015250565b611ba481611961565b8114611baf57600080fd5b5056fea2646970667358221220496be656a56aa23a0b0bd96875de725f283c343290f2ae5cb88eab848715c3ba64736f6c63430008040033",
  "linkReferences": {},
  "deployedLinkReferences": {}
}